{
  "contractName": "buyerToseller",
  "abi": [
    {
      "inputs": [
        {
          "internalType": "string",
          "name": "email",
          "type": "string"
        }
      ],
      "name": "addSeller",
      "outputs": [],
      "stateMutability": "nonpayable",
      "type": "function"
    },
    {
      "inputs": [
        {
          "internalType": "string[]",
          "name": "_emails",
          "type": "string[]"
        },
        {
          "internalType": "string",
          "name": "_item",
          "type": "string"
        }
      ],
      "name": "setItems",
      "outputs": [],
      "stateMutability": "nonpayable",
      "type": "function"
    },
    {
      "inputs": [
        {
          "internalType": "string",
          "name": "mail",
          "type": "string"
        }
      ],
      "name": "getAllItems",
      "outputs": [
        {
          "internalType": "uint256[]",
          "name": "arr",
          "type": "uint256[]"
        }
      ],
      "stateMutability": "view",
      "type": "function"
    },
    {
      "inputs": [
        {
          "internalType": "uint256",
          "name": "id",
          "type": "uint256"
        }
      ],
      "name": "getItem",
      "outputs": [
        {
          "internalType": "string",
          "name": "",
          "type": "string"
        }
      ],
      "stateMutability": "view",
      "type": "function"
    },
    {
      "inputs": [
        {
          "internalType": "string",
          "name": "_quote",
          "type": "string"
        },
        {
          "internalType": "string",
          "name": "id",
          "type": "string"
        },
        {
          "internalType": "string",
          "name": "_email",
          "type": "string"
        }
      ],
      "name": "setQuote",
      "outputs": [],
      "stateMutability": "nonpayable",
      "type": "function"
    },
    {
      "inputs": [
        {
          "internalType": "uint256",
          "name": "id",
          "type": "uint256"
        }
      ],
      "name": "getQuote",
      "outputs": [
        {
          "internalType": "string[]",
          "name": "",
          "type": "string[]"
        },
        {
          "internalType": "string[]",
          "name": "",
          "type": "string[]"
        }
      ],
      "stateMutability": "view",
      "type": "function"
    },
    {
      "inputs": [],
      "name": "getQuotes",
      "outputs": [
        {
          "internalType": "uint256",
          "name": "",
          "type": "uint256"
        }
      ],
      "stateMutability": "view",
      "type": "function"
    },
    {
      "inputs": [
        {
          "internalType": "uint256",
          "name": "id",
          "type": "uint256"
        },
        {
          "internalType": "string",
          "name": "mail",
          "type": "string"
        }
      ],
      "name": "Accepted",
      "outputs": [],
      "stateMutability": "nonpayable",
      "type": "function"
    },
    {
      "inputs": [
        {
          "internalType": "uint256",
          "name": "id",
          "type": "uint256"
        }
      ],
      "name": "isAccepted",
      "outputs": [
        {
          "internalType": "bool",
          "name": "",
          "type": "bool"
        }
      ],
      "stateMutability": "view",
      "type": "function"
    },
    {
      "inputs": [
        {
          "internalType": "uint256",
          "name": "id",
          "type": "uint256"
        },
        {
          "internalType": "string",
          "name": "mail",
          "type": "string"
        }
      ],
      "name": "isPresent",
      "outputs": [
        {
          "internalType": "bool",
          "name": "",
          "type": "bool"
        }
      ],
      "stateMutability": "view",
      "type": "function"
    },
    {
      "inputs": [
        {
          "internalType": "string",
          "name": "mail",
          "type": "string"
        }
      ],
      "name": "getMyQuotes",
      "outputs": [
        {
          "internalType": "string",
          "name": "",
          "type": "string"
        }
      ],
      "stateMutability": "view",
      "type": "function"
    }
  ],
  "bytecode": "0x60806040525f600155348015610013575f80fd5b506119e2806100215f395ff3fe608060405234801561000f575f80fd5b50600436106100a7575f3560e01c80637841eb9f1161006f5780637841eb9f14610173578063924f28f9146101a3578063a08bc01a146101bf578063a4204e39146101db578063cf39918e146101f9578063e5b446761461022a576100a7565b8063245349d3146100ab57806329bc3b85146100c75780632b912369146100f75780633129e77314610113578063334ef4c814610143575b5f80fd5b6100c560048036038101906100c09190610e4e565b61025a565b005b6100e160048036038101906100dc9190610ec8565b6102f5565b6040516100ee9190610f0d565b60405180910390f35b610111600480360381019061010c9190611008565b61031e565b005b61012d60048036038101906101289190610ec8565b610451565b60405161013a91906110f8565b60405180910390f35b61015d60048036038101906101589190610e4e565b6104f5565b60405161016a91906110f8565b60405180910390f35b61018d60048036038101906101889190610e4e565b6105a6565b60405161019a91906111cf565b60405180910390f35b6101bd60048036038101906101b891906111ef565b61061d565b005b6101d960048036038101906101d49190611249565b610739565b005b6101e3610816565b6040516101f091906112fc565b60405180910390f35b610213600480360381019061020e9190610ec8565b61082a565b604051610221929190611418565b60405180910390f35b610244600480360381019061023f91906111ef565b610b64565b6040516102519190610f0d565b60405180910390f35b60405180602001604052805f8152506003826040516102799190611487565b90815260200160405180910390205f0190816102959190611697565b5060405180602001604052805f8152506003826040516102b59190611487565b908152602001604051809103902060010190816102d29190611697565b506003816040516102e39190611487565b90815260200160405180910390205050565b5f60025f8381526020019081526020015f206003015f9054906101000a900460ff169050919050565b8160025f60015481526020019081526020015f205f019080519060200190610347929190610c2f565b508060025f60015481526020019081526020015f20600101908161036b9190611697565b5060015460025f60015481526020019081526020015f20600401819055505f60025f60015481526020019081526020015f206003015f6101000a81548160ff0219169083151502179055505f5b82518110156104355760038382815181106103d6576103d5611766565b5b60200260200101516040516103eb9190611487565b9081526020016040518091039020600201600154908060018154018082558091505060019003905f5260205f20015f9091909190915055808061042d906117c0565b9150506103b8565b5060015f815480929190610448906117c0565b91905055505050565b606060025f8381526020019081526020015f206001018054610472906114ca565b80601f016020809104026020016040519081016040528092919081815260200182805461049e906114ca565b80156104e95780601f106104c0576101008083540402835291602001916104e9565b820191905f5260205f20905b8154815290600101906020018083116104cc57829003601f168201915b50505050509050919050565b60606003826040516105079190611487565b90815260200160405180910390206001018054610523906114ca565b80601f016020809104026020016040519081016040528092919081815260200182805461054f906114ca565b801561059a5780601f106105715761010080835404028352916020019161059a565b820191905f5260205f20905b81548152906001019060200180831161057d57829003601f168201915b50505050509050919050565b60606003826040516105b89190611487565b908152602001604051809103902060020180548060200260200160405190810160405280929190818152602001828054801561061157602002820191905f5260205f20905b8154815260200190600101908083116105fd575b50505050509050919050565b600160025f8481526020019081526020015f206003015f6101000a81548160ff0219169083151502179055505f5b60025f8481526020019081526020015f205f01805490508110156107345760025f8481526020019081526020015f205f01818154811061068e5761068d611766565b5b905f5260205f20016040516020016106a69190611887565b60405160208183030381529060405280519060200120826040516020016106cd9190611487565b60405160208183030381529060405280519060200120146107215760025f8481526020019081526020015f205f01818154811061070d5761070c611766565b5b905f5260205f20015f6107209190610c86565b5b808061072c906117c0565b91505061064b565b505050565b8160405160200161074a91906118c3565b60405160208183030381529060405291508160405160200161076c919061190e565b60405160208183030381529060405291508183604051602001610790929190611933565b60405160208183030381529060405291506003816040516107b19190611487565b9081526020016040518091039020600101826040516020016107d4929190611956565b6040516020818303038152906040526003826040516107f39190611487565b908152602001604051809103902060010190816108109190611697565b50505050565b5f600180546108259190611979565b905090565b6060805f8060025f8681526020019081526020015f205f01805480602002602001604051908101604052809291908181526020015f905b82821015610909578382905f5260205f2001805461087e906114ca565b80601f01602080910402602001604051908101604052809291908181526020018280546108aa906114ca565b80156108f55780601f106108cc576101008083540402835291602001916108f5565b820191905f5260205f20905b8154815290600101906020018083116108d857829003601f168201915b505050505081526020019060010190610861565b5050505090505f60025f8781526020019081526020015f205f018054905067ffffffffffffffff8111156109405761093f610d2a565b5b60405190808252806020026020018201604052801561097357816020015b606081526020019060019003908161095e5790505b5090505f92505b8151831015610a7657600382848151811061099857610997611766565b5b60200260200101516040516109ad9190611487565b908152602001604051809103902060010180546109c9906114ca565b80601f01602080910402602001604051908101604052809291908181526020018280546109f5906114ca565b8015610a405780601f10610a1757610100808354040283529160200191610a40565b820191905f5260205f20905b815481529060010190602001808311610a2357829003601f168201915b5050505050818481518110610a5857610a57611766565b5b60200260200101819052508280610a6e906117c0565b93505061097a565b8060025f8881526020019081526020015f205f0180805480602002602001604051908101604052809291908181526020015f905b82821015610b52578382905f5260205f20018054610ac7906114ca565b80601f0160208091040260200160405190810160405280929190818152602001828054610af3906114ca565b8015610b3e5780601f10610b1557610100808354040283529160200191610b3e565b820191905f5260205f20905b815481529060010190602001808311610b2157829003601f168201915b505050505081526020019060010190610aaa565b50505050905094509450505050915091565b5f805f90505f5b60025f8681526020019081526020015f205f0180549050811015610c245760025f8681526020019081526020015f205f018181548110610bae57610bad611766565b5b905f5260205f2001604051602001610bc69190611887565b6040516020818303038152906040528051906020012084604051602001610bed9190611487565b6040516020818303038152906040528051906020012003610c115760019150610c24565b8080610c1c906117c0565b915050610b6b565b508091505092915050565b828054828255905f5260205f20908101928215610c75579160200282015b82811115610c74578251829081610c649190611697565b5091602001919060010190610c4d565b5b509050610c829190610cc3565b5090565b508054610c92906114ca565b5f825580601f10610ca35750610cc0565b601f0160209004905f5260205f2090810190610cbf9190610ce6565b5b50565b5b80821115610ce2575f8181610cd99190610c86565b50600101610cc4565b5090565b5b80821115610cfd575f815f905550600101610ce7565b5090565b5f604051905090565b5f80fd5b5f80fd5b5f80fd5b5f80fd5b5f601f19601f8301169050919050565b7f4e487b71000000000000000000000000000000000000000000000000000000005f52604160045260245ffd5b610d6082610d1a565b810181811067ffffffffffffffff82111715610d7f57610d7e610d2a565b5b80604052505050565b5f610d91610d01565b9050610d9d8282610d57565b919050565b5f67ffffffffffffffff821115610dbc57610dbb610d2a565b5b610dc582610d1a565b9050602081019050919050565b828183375f83830152505050565b5f610df2610ded84610da2565b610d88565b905082815260208101848484011115610e0e57610e0d610d16565b5b610e19848285610dd2565b509392505050565b5f82601f830112610e3557610e34610d12565b5b8135610e45848260208601610de0565b91505092915050565b5f60208284031215610e6357610e62610d0a565b5b5f82013567ffffffffffffffff811115610e8057610e7f610d0e565b5b610e8c84828501610e21565b91505092915050565b5f819050919050565b610ea781610e95565b8114610eb1575f80fd5b50565b5f81359050610ec281610e9e565b92915050565b5f60208284031215610edd57610edc610d0a565b5b5f610eea84828501610eb4565b91505092915050565b5f8115159050919050565b610f0781610ef3565b82525050565b5f602082019050610f205f830184610efe565b92915050565b5f67ffffffffffffffff821115610f4057610f3f610d2a565b5b602082029050602081019050919050565b5f80fd5b5f610f67610f6284610f26565b610d88565b90508083825260208201905060208402830185811115610f8a57610f89610f51565b5b835b81811015610fd157803567ffffffffffffffff811115610faf57610fae610d12565b5b808601610fbc8982610e21565b85526020850194505050602081019050610f8c565b5050509392505050565b5f82601f830112610fef57610fee610d12565b5b8135610fff848260208601610f55565b91505092915050565b5f806040838503121561101e5761101d610d0a565b5b5f83013567ffffffffffffffff81111561103b5761103a610d0e565b5b61104785828601610fdb565b925050602083013567ffffffffffffffff81111561106857611067610d0e565b5b61107485828601610e21565b9150509250929050565b5f81519050919050565b5f82825260208201905092915050565b5f5b838110156110b557808201518184015260208101905061109a565b5f8484015250505050565b5f6110ca8261107e565b6110d48185611088565b93506110e4818560208601611098565b6110ed81610d1a565b840191505092915050565b5f6020820190508181035f83015261111081846110c0565b905092915050565b5f81519050919050565b5f82825260208201905092915050565b5f819050602082019050919050565b61114a81610e95565b82525050565b5f61115b8383611141565b60208301905092915050565b5f602082019050919050565b5f61117d82611118565b6111878185611122565b935061119283611132565b805f5b838110156111c25781516111a98882611150565b97506111b483611167565b925050600181019050611195565b5085935050505092915050565b5f6020820190508181035f8301526111e78184611173565b905092915050565b5f806040838503121561120557611204610d0a565b5b5f61121285828601610eb4565b925050602083013567ffffffffffffffff81111561123357611232610d0e565b5b61123f85828601610e21565b9150509250929050565b5f805f606084860312156112605761125f610d0a565b5b5f84013567ffffffffffffffff81111561127d5761127c610d0e565b5b61128986828701610e21565b935050602084013567ffffffffffffffff8111156112aa576112a9610d0e565b5b6112b686828701610e21565b925050604084013567ffffffffffffffff8111156112d7576112d6610d0e565b5b6112e386828701610e21565b9150509250925092565b6112f681610e95565b82525050565b5f60208201905061130f5f8301846112ed565b92915050565b5f81519050919050565b5f82825260208201905092915050565b5f819050602082019050919050565b5f82825260208201905092915050565b5f6113588261107e565b611362818561133e565b9350611372818560208601611098565b61137b81610d1a565b840191505092915050565b5f611391838361134e565b905092915050565b5f602082019050919050565b5f6113af82611315565b6113b9818561131f565b9350836020820285016113cb8561132f565b805f5b8581101561140657848403895281516113e78582611386565b94506113f283611399565b925060208a019950506001810190506113ce565b50829750879550505050505092915050565b5f6040820190508181035f83015261143081856113a5565b9050818103602083015261144481846113a5565b90509392505050565b5f81905092915050565b5f6114618261107e565b61146b818561144d565b935061147b818560208601611098565b80840191505092915050565b5f6114928284611457565b915081905092915050565b7f4e487b71000000000000000000000000000000000000000000000000000000005f52602260045260245ffd5b5f60028204905060018216806114e157607f821691505b6020821081036114f4576114f361149d565b5b50919050565b5f819050815f5260205f209050919050565b5f6020601f8301049050919050565b5f82821b905092915050565b5f600883026115567fffffffffffffffffffffffffffffffffffffffffffffffffffffffffffffffff8261151b565b611560868361151b565b95508019841693508086168417925050509392505050565b5f819050919050565b5f61159b61159661159184610e95565b611578565b610e95565b9050919050565b5f819050919050565b6115b483611581565b6115c86115c0826115a2565b848454611527565b825550505050565b5f90565b6115dc6115d0565b6115e78184846115ab565b505050565b5b8181101561160a576115ff5f826115d4565b6001810190506115ed565b5050565b601f82111561164f57611620816114fa565b6116298461150c565b81016020851015611638578190505b61164c6116448561150c565b8301826115ec565b50505b505050565b5f82821c905092915050565b5f61166f5f1984600802611654565b1980831691505092915050565b5f6116878383611660565b9150826002028217905092915050565b6116a08261107e565b67ffffffffffffffff8111156116b9576116b8610d2a565b5b6116c382546114ca565b6116ce82828561160e565b5f60209050601f8311600181146116ff575f84156116ed578287015190505b6116f7858261167c565b86555061175e565b601f19841661170d866114fa565b5f5b828110156117345784890151825560018201915060208501945060208101905061170f565b86831015611751578489015161174d601f891682611660565b8355505b6001600288020188555050505b505050505050565b7f4e487b71000000000000000000000000000000000000000000000000000000005f52603260045260245ffd5b7f4e487b71000000000000000000000000000000000000000000000000000000005f52601160045260245ffd5b5f6117ca82610e95565b91507fffffffffffffffffffffffffffffffffffffffffffffffffffffffffffffffff82036117fc576117fb611793565b5b600182019050919050565b5f8154611813816114ca565b61181d818661144d565b9450600182165f8114611837576001811461184c5761187e565b60ff198316865281151582028601935061187e565b611855856114fa565b5f5b8381101561187657815481890152600182019150602081019050611857565b838801955050505b50505092915050565b5f6118928284611807565b915081905092915050565b7f2020000000000000000000000000000000000000000000000000000000000000815250565b5f6118cd8261189d565b6002820191506118dd8284611457565b915081905092915050565b7f2000000000000000000000000000000000000000000000000000000000000000815250565b5f6119198284611457565b9150611924826118e8565b60018201915081905092915050565b5f61193e8285611457565b915061194a8284611457565b91508190509392505050565b5f6119618285611807565b915061196d8284611457565b91508190509392505050565b5f61198382610e95565b915061198e83610e95565b92508282039050818111156119a6576119a5611793565b5b9291505056fea26469706673582212204fb0526b897392699b077bf5b140a51109d83dba919d91e7d8ce35b29683888064736f6c63430008150033",
  "immutableReferences": {},
  "source": "// SPDX-License-Identifier: GPL-3.0\r\npragma solidity ^0.8.1;\r\ncontract buyerToseller{\r\n    address payable buyer;\r\n    uint count=0;\r\n    struct Items{\r\n        string[] emails;\r\n        string item;\r\n        string quantity;\r\n        bool Accepted;\r\n        uint p;\r\n    }\r\n    struct Sellers{\r\n        string order;\r\n        string quote;\r\n        uint[] n;\r\n    }\r\n    mapping(uint=>Items) B;\r\n    mapping(string=>Sellers) tendor;\r\n    function addSeller(string memory email)public{\r\n            tendor[email].order=\"\";\r\n            tendor[email].quote=\"\";\r\n            tendor[email].n;\r\n\r\n    }\r\n    function setItems(string[] memory _emails,string memory _item)public{\r\n        B[count].emails=_emails;\r\n        B[count].item=_item;\r\n        B[count].p=count;\r\n        B[count].Accepted=false;\r\n        for(uint i=0;i<_emails.length;i++){\r\n            tendor[_emails[i]].n.push(count);\r\n        }\r\n        count++;        \r\n    }\r\n    function getAllItems(string memory mail)public view returns(uint[] memory arr){\r\n        return tendor[mail].n;\r\n    }\r\n    function getItem(uint id)public view returns(string memory){\r\n        return B[id].item;\r\n    }\r\n    function setQuote(string memory _quote,string memory id,string memory _email)public{\r\n        id=string.concat(\"  \",id);\r\n        id=string.concat((id),\" \");\r\n        id=string.concat(id,_quote);\r\n        tendor[_email].quote=string.concat(tendor[_email].quote,id);\r\n    }\r\n    function getQuote(uint id)public view returns(string[] memory,string[] memory){\r\n        uint i;\r\n        string[] memory str=B[id].emails;\r\n        string[] memory q=new string[](B[id].emails.length);\r\n        for(i=0;i<str.length;i++){\r\n           q[i]=(tendor[str[i]].quote);\r\n         }\r\n        return (q,B[id].emails);\r\n    }\r\n    // function getQuotes()public view returns(string[] memory){\r\n    //     string[] memory arr;\r\n    //     for(uint i=0;i<count;i++){\r\n    //         arr[i]=B[i].item;\r\n    //     }\r\n    //     return arr;\r\n    // }\r\n     function getQuotes()public view returns(uint){\r\n        return count-1;\r\n    }\r\n    function Accepted(uint id,string memory mail) public{\r\n        B[id].Accepted=true;\r\n        for(uint i=0;i<B[id].emails.length;i++){\r\n            if(keccak256(abi.encodePacked(mail)) != keccak256(abi.encodePacked(B[id].emails[i]))){\r\n                delete B[id].emails[i];\r\n            }\r\n        }\r\n\r\n\r\n    }\r\n    function isAccepted(uint id)public view returns(bool){\r\n        return  B[id].Accepted;\r\n    }\r\n     function isPresent(uint id,string memory mail)public view returns(bool){\r\n         bool flag=false;\r\n         for(uint i=0;i<B[id].emails.length;i++){\r\n             if(keccak256(abi.encodePacked(mail)) == keccak256(abi.encodePacked(B[id].emails[i]))){\r\n                 flag=true;                                                                                                                                                                                                                                                                                                                                 \r\n                 break;\r\n             }\r\n         }\r\n         return flag;\r\n    }\r\n    function getMyQuotes(string memory mail)public view returns (string memory){\r\n        return tendor[mail].quote;\r\n    }\r\n}\r\n",
  "sourcePath": "C:\\Users\\soman\\OneDrive\\Documents\\blockchain\\Blockchain based Tender System\\contracts\\buyerToseller.sol",
  "compiler": {
    "name": "solc",
    "version": "0.8.21+commit.d9974bed.Emscripten.clang"
  },
  "schemaVersion": "3.4.16",
  "updatedAt": "2024-04-27T06:47:09.843Z",
  "devdoc": {
    "kind": "dev",
    "methods": {},
    "version": 1
  },
  "userdoc": {
    "kind": "user",
    "methods": {},
    "version": 1
  }
}